:020000040000fa
:080000000002040000000000f2
:020000040000fa
:0400080032030000bf
:020000040000fa
:04000c007403000079
:020000040000fa
:04001000d403000015
:020000040000fa
:040014005203000093
:020000040000fa
:04001800940300004d
:020000040000fa
:04001c00b403000029
:020000040000fa
:04002000f4030000e5
:020000040000fa
:04002400ce04000006
:020000040000fa
:04002800ce04000002
:020000040000fa
:04002c00ce040000fe
:020000040000fa
:04003000ce040000fa
:020000040000fa
:04003400ce040000f6
:020000040000fa
:04003800ce040000f2
:020000040000fa
:04003c00ce040000ee
:020000040000fa
:04004000ce040000ea
:020000040000fa
:040044006e04000046
:020000040000fa
:040048009e04000012
:020000040000fa
:04004c00ce040000de
:020000040000fa
:04005000ce040000da
:020000040000fa
:04005400ce040000d6
:020000040000fa
:04005800ce040000d2
:020000040000fa
:04005c00ce040000ce
:020000040000fa
:04006000ce040000ca
:020000040000fa
:04006400ce040000c6
:020000040000fa
:04006800ce040000c2
:020000040000fa
:04006c00ce040000be
:020000040000fa
:04007000ce040000ba
:020000040000fa
:040074004004000044
:020000040000fa
:04007800ce040000b2
:020000040000fa
:04007c00ce040000ae
:020000040000fa
:04008000ce040000aa
:020000040000fa
:04008400ce040000a6
:020000040000fa
:04008800ce040000a2
:020000040000fa
:04008c00ce0400009e
:020000040000fa
:04009000ce0400009a
:020000040000fa
:04009400ce04000096
:020000040000fa
:04009800ce04000092
:020000040000fa
:04009c00ce0400008e
:020000040000fa
:0400a000ce0400008a
:020000040000fa
:0400a400ce04000086
:020000040000fa
:0400a800ce04000082
:020000040000fa
:0400ac00ce0400007e
:020000040000fa
:0400b000ce0400007a
:020000040000fa
:0400b400ce04000076
:020000040000fa
:0400b800ce04000072
:020000040000fa
:0400bc00ce0400006e
:020000040000fa
:0400c000ce0400006a
:020000040000fa
:0400c400ce04000066
:020000040000fa
:0400c800ce04000062
:020000040000fa
:0400cc00ce0400005e
:020000040000fa
:0400d000ce0400005a
:020000040000fa
:0400d400ce04000056
:020000040000fa
:0400d800ce04000052
:020000040000fa
:0400dc00ce0400004e
:020000040000fa
:0400e000ce0400004a
:020000040000fa
:0400e400ce04000046
:020000040000fa
:0400e800ce04000042
:020000040000fa
:0400ec00ce0400003e
:020000040000fa
:0400f000ce0400003a
:020000040000fa
:0400f400ce04000036
:020000040000fa
:0400f800ce04000032
:020000040000fa
:0400fc00ce0400002e
:020000040000fa
:04010000ce04000029
:020000040000fa
:04010400ce04000025
:020000040000fa
:04010800ce04000021
:020000040000fa
:04010c00ce0400001d
:020000040000fa
:04011000ce04000019
:020000040000fa
:04011400ce04000015
:020000040000fa
:04011800ce04000011
:020000040000fa
:04011c00ce0400000d
:020000040000fa
:04012000ce04000009
:020000040000fa
:04012400ce04000005
:020000040000fa
:04012800ce04000001
:020000040000fa
:04012c00ce040000fd
:020000040000fa
:04013000ce040000f9
:020000040000fa
:04013400ce040000f5
:020000040000fa
:04013800ce040000f1
:020000040000fa
:04013c00ce040000ed
:020000040000fa
:04014000ce040000e9
:020000040000fa
:04014400ce040000e5
:020000040000fa
:04014800ce040000e1
:020000040000fa
:04014c00ce040000dd
:020000040000fa
:04015000ce040000d9
:020000040000fa
:04015400ce040000d5
:020000040000fa
:04015800ce040000d1
:020000040000fa
:04015c00ce040000cd
:020000040000fa
:04016000ce040000c9
:020000040000fa
:04016400ce040000c5
:020000040000fa
:04016800ce040000c1
:020000040000fa
:04016c00ce040000bd
:020000040000fa
:04017000ce040000b9
:020000040000fa
:04017400ce040000b5
:020000040000fa
:04017800ce040000b1
:020000040000fa
:04017c00ce040000ad
:020000040000fa
:04018000ce040000a9
:020000040000fa
:04018400ce040000a5
:020000040000fa
:04018800ce040000a1
:020000040000fa
:04018c00ce0400009d
:020000040000fa
:04019000ce04000099
:020000040000fa
:04019400ce04000095
:020000040000fa
:04019800ce04000091
:020000040000fa
:04019c00ce0400008d
:020000040000fa
:0401a000ce04000089
:020000040000fa
:0401a400ce04000085
:020000040000fa
:0401a800ce04000081
:020000040000fa
:0401ac00ce0400007d
:020000040000fa
:0401b000ce04000079
:020000040000fa
:0401b400ce04000075
:020000040000fa
:0401b800ce04000071
:020000040000fa
:0401bc00ce0400006d
:020000040000fa
:0401c000ce04000069
:020000040000fa
:0401c400ce04000065
:020000040000fa
:0401c800ce04000061
:020000040000fa
:0401cc00ce0400005d
:020000040000fa
:0401d000ce04000059
:020000040000fa
:0401d400ce04000055
:020000040000fa
:0401d800ce04000051
:020000040000fa
:0401dc00ce0400004d
:020000040000fa
:0401e000ce04000049
:020000040000fa
:0401e400ce04000045
:020000040000fa
:0401e800ce04000041
:020000040000fa
:0401ec00ce0400003d
:020000040000fa
:0401f000ce04000039
:020000040000fa
:0401f400ce04000035
:020000040000fa
:0401f800ce04000031
:020000040000fa
:0401fc00ce0400002d
:020000040000fa
:04020000ce04000028
:020000040000fa
:04020400ce04000024
:020000040000fa
:04020800ce04000020
:020000040000fa
:04020c00ce0400001c
:020000040000fa
:04021000ce04000018
:020000040000fa
:04021400ce04000014
:020000040000fa
:04021800ce04000010
:020000040000fa
:04021c00ce0400000c
:020000040000fa
:04022000ce04000008
:020000040000fa
:04022400ce04000004
:020000040000fa
:04022800ce04000000
:020000040000fa
:04022c00ce040000fc
:020000040000fa
:04023000ce040000f8
:020000040000fa
:04023400ce040000f4
:020000040000fa
:04023800ce040000f0
:020000040000fa
:04023c00ce040000ec
:020000040000fa
:04024000ce040000e8
:020000040000fa
:04024400ce040000e4
:020000040000fa
:04024800ce040000e0
:020000040000fa
:04024c00ce040000dc
:020000040000fa
:04025000ce040000d8
:020000040000fa
:04025400ce040000d4
:020000040000fa
:04025800ce040000d0
:020000040000fa
:04025c00ce040000cc
:020000040000fa
:04026000ce040000c8
:020000040000fa
:04026400ce040000c4
:020000040000fa
:04026800ce040000c0
:020000040000fa
:04026c00ce040000bc
:020000040000fa
:04027000ce040000b8
:020000040000fa
:04027400ce040000b4
:020000040000fa
:04027800ce040000b0
:020000040000fa
:04027c00ce040000ac
:020000040000fa
:04028000ce040000a8
:020000040000fa
:04028400ce040000a4
:020000040000fa
:04028800ce040000a0
:020000040000fa
:04028c00ce0400009c
:020000040000fa
:04029000ce04000098
:020000040000fa
:04029400ce04000094
:020000040000fa
:04029800ce04000090
:020000040000fa
:04029c00ce0400008c
:020000040000fa
:0402a000ce04000088
:020000040000fa
:0402a400ce04000084
:020000040000fa
:0402a800ce04000080
:020000040000fa
:0402ac00ce0400007c
:020000040000fa
:0402b000ce04000078
:020000040000fa
:0402b400ce04000074
:020000040000fa
:0402b800ce04000070
:020000040000fa
:0402bc00ce0400006c
:020000040000fa
:0402c000ce04000068
:020000040000fa
:0402c400ce04000064
:020000040000fa
:0402c800ce04000060
:020000040000fa
:0402cc00ce0400005c
:020000040000fa
:0402d000ce04000058
:020000040000fa
:0402d400ce04000054
:020000040000fa
:0402d800ce04000050
:020000040000fa
:0402dc00ce0400004c
:020000040000fa
:0402e000ce04000048
:020000040000fa
:0402e400ce04000044
:020000040000fa
:0402e800ce04000040
:020000040000fa
:0402ec00ce0400003c
:020000040000fa
:0402f000ce04000038
:020000040000fa
:0402f400ce04000034
:020000040000fa
:0402f800ce04000030
:020000040000fa
:0402fc00ce0400002c
:020000040000fa
:04030000ce04000027
:020000040000fa
:04030400ce04000023
:020000040000fa
:04030800ce0400001f
:020000040000fa
:04030c00ce0400001b
:020000040000fa
:04031000ce04000017
:020000040000fa
:10040000af1d21000eff21000e018800000000003a
:10041000000020000000e000020032000001200087
:1004200020028800140007005e0107000000e000c1
:1004300003003a00003f21000100200002003700c5
:100440000000200001002000810f70000100320038
:100450000f000700000020000000e0000200320052
:100460000000020000000000061202000000000070
:100470000040da000000fe00c00020000000e000a4
:1004800002003200002020009001880000000600d9
:10049000a1028800800478000000eb001f003700f4
:1004a000e284440054a0b4009905ba00e2844400f8
:1004b00054a0b4009906ba00e284440054a0b400e9
:1004c0000006eb00476fde00fd07b200ae018800ba
:1004d000636ce10003003a000ad801000000eb0061
:1004e0000e003700606ce10008003a00004deb00a0
:1004f0000a05e800020039003420ec000af0a000f0
:100500008b05e900f9ff3e00040037006168e10057
:10051000010032000086eb000b00070019c7ba008b
:100520000e04e0001905ba0003003a000a00e000da
:10053000dbff3a0000000600fe07b200ae028800b2
:100540008a047800f5ff37000cd0a300e20f4d00bd
:100550001c00390089027800354dba000a05e80010
:10056000020039003420ec000af0a0008b05e900fd
:100570000f003200254dba000a05e80002003900dc
:100580003420ec000af0a0008b05e90008003200de
:100590000c00e0000600320015cdba000a05e800a4
:1005a000020039003420ec000af0a0008b05e900bd
:1005b0008984e80054a0b4000b00e000e2ff3a0098
:1005c000000006009902ba00055d78008b05e9007d
:1005d000f7ff3200c82ade00055d78008b05e900d0
:1005e000f3ff32000c00e000f1ff320019ddba0029
:1005f000eeff3700000000000000000000000000d7
:1006000000000000000000000000000000000000ea
:1006100000000000000000000000000000000000da
:1006200000000000000000000000000000000000ca
:1006300000000000000000000000000000000000ba
:1006400000000000000000000000000000000000aa
:10065000000000000000000000000000000000009a
:10066000000000003600f800809fbe00829fbe00a0
:10067000849fbe00869fbe000000fa00c028a9002b
:100680000000eb006a0e07000080fa004f03be0076
:100690004f02be004f01be004f00be003600f90001
:1006a000004006003600f800809fbe00829fbe001a
:1006b000849fbe00869fbe000000fa00610e070006
:1006c000c048a90010002000590e07000080fa0061
:1006d0004f03be004f02be004f01be004f00be00e0
:1006e0003600f900004006003600f800809fbe008a
:1006f000829fbe00849fbe00869fbe000000fa005d
:10070000c068a90020002000490e07000080fa0000
:100710004f03be004f02be004f01be004f00be009f
:100720003600f900004006003600f800809fbe0049
:10073000829fbe00849fbe00869fbe000000fa001c
:10074000c088a90030002000390e07000080fa00a0
:100750004f03be004f02be004f01be004f00be005f
:100760003600f900004006003600f800809fbe0009
:10077000829fbe00849fbe00869fbe000000fa00dc
:10078000c0a8a90040002000290e07000080fa0040
:100790004f03be004f02be004f01be004f00be001f
:1007a0003600f900004006003600f800809fbe00c9
:1007b000829fbe00849fbe00869fbe000000fa009c
:1007c000c608a90070002000190e07000080fa007a
:1007d0004f03be004f02be004f01be004f00be00df
:1007e0003600f900004006003600f800809fbe0089
:1007f000829fbe00849fbe00869fbe000000fa005c
:100800002146800000102000008060000000e00011
:1008100003003200c508a900c0002000040e070034
:100820002146800000002800008060000000e000f9
:1008300003003200c5e8a90080002000fc0d07007d
:100840002146800000022000008060000000e000df
:1008500003003200c4a8a90090002000f40d070096
:1008600020468000700060000000e00003003200bd
:10087000c488a900a0002000ed0d0700ffff37008d
:100880003600f800809fbe00829fbe00849fbe009d
:10089000869fbe000000fa001040800068006000e3
:1008a0000000e00006003200c08c80000000e00084
:1008b00002003200c08c8000000001000268a90024
:1008c0000080fa004f03be004f02be004f01be0081
:1008d0004f00be003600f900004006003600f80068
:1008e000809fbe00829fbe00849fbe00869fbe0088
:1008f0000000fa00708c80000000e000020032006e
:10090000708c80000000010091d1bf000040e80021
:1009100091f1b70010c0b30090f1b70000e8a90052
:100920000080fa004f03be004f02be004f01be0020
:100930004f00be003600f900004006003600f80007
:10094000809fbe00829fbe00849fbe00869fbe0027
:100950000000fa00908c80000000e00002003200ed
:10096000908c80000000010095d1bf000040e8009d
:1009700095f1b70010c0b30094f1b7000108a900c9
:100980000080fa004f03be004f02be004f01be00c0
:100990004f00be003600f900004006000040da00bb
:1009a0000000fe00000005006022b80006022000e2
:1009b0000000d0008180d2000482d2008582d20063
:1009c0000000a0000202520083825a00030031009e
:1009d0000202420083824a000000a1000603e900ef
:1009e000f3ff3a0000000600800078000101780063
:1009f0003104e000fdff3a00000051000000060055
:100a0000881f78000204780008017800e6010700da
:100a1000080040004f047800000006000000fa00c3
:100a2000881f780000047800ea8157003fb99700da
:100a30008800780000502000070007000000e00058
:100a40000200350000044400004ceb004f04780025
:100a50000080fa00000006006200fa00889fbe00d5
:100a60008a1f78000005780081047800020478006d
:100a70008300780080f92f000f004000d6030700a4
:100a80009a979f00a9979f000000eb00b09f9f00de
:100a90001885fb008a04fb000a05ea004f55de00ba
:100aa00050022000808f54000d003200e10f5500ed
:100ab0000b003a000a017800880078002f90970018
:100ac0009f91970003000100a0979f000000e000a5
:100ad0008e0032003f9897000000e800b09f9f0012
:100ae0000a04440050022000808f540004003200a9
:100af0000900e000e6ff3a003f98970084003700c5
:100b00000000eb00909f9f00809f9f00f0979f0048
:100b1000e0979f00d0979f00c0979f000700370085
:100b2000411d21000100500000004000811c2100f7
:100b3000808040005f98970011007000d09f9f0058
:100b40008804780009047800384578008a00fb00a2
:100b5000401d21009b0107000000e000f0ff3a006b
:100b6000a1c2b300814f55000e003a00cf88970014
:100b70000180e900c08f9f0010007800c09f9f0097
:100b80000000e00005003d000000ea00c09f9f005b
:100b90005f9897000020a000d09f9f000904e80004
:100ba0000f003700c09f9f000000eb0005003700da
:100bb000f2ff2700820f500002003200ea00b90065
:100bc000008040000904780088047800b900fb0028
:100bd0000103b100e98f5000f5ff3600c09f9f0070
:100be000e0c2b300984f1000020032000080eb001a
:100bf00019003700a0c2b300d84f100007003a0018
:100c0000cf8897000180e900c08f9f001000780016
:100c1000a09f9f000804e800100037000000eb00d0
:100c2000a09f9f008800780005003700f3ff270091
:100c3000830f500002003200ea00b90000004100ba
:100c400001047800880078003101fb000203b10044
:100c5000e90f5100f5ff3600a09f9f0098447800ef
:100c60008900fb00001c2100560107000000e00085
:100c7000020032000804e800010037008044eb0065
:100c8000c97f9f0080c6b30080cf540004003a00a3
:100c900098cf14000a003a00664050000600370062
:100ca000c0c6b30080cf540005003a0098cf1400ae
:100cb00003003a0065404000c07f9f000804e80040
:100cc0001801fb00e3fb2f008f81410081f92f0009
:100cd0008f804000a0f92f000f0040001000070097
:100ce0000000e00009003a00e1fb2f008f80400087
:100cf000a0f92f000f0040007b0207000000e00079
:100d0000020035000804e80061ff37000080eb00b6
:100d10004f0578004f04be000080fa000000060076
:100d2000889fbe008a9fbe00e4c6b300844f510076
:100d3000ce00320010003c006b425200844f510044
:100d40001800320005003c0054c2b300844f51002b
:100d50000601320084c5b3000f00370044c6b3005b
:100d6000844f51001500320065424200844f51000b
:100d700001013a001100370004c7b300844f51004d
:100d8000ed0032005f00350065424200844f5100a3
:100d90005c00320063424200844f5100f6003a008a
:100da000580037001181e90082087800f0009000b7
:100db0008181410092497800f5003700206290005f
:100dc000c5c6b300854f520008003a009102780072
:100dd0006482520084087800940290001402780023
:100de0004fabde00860378001600370015c7b3004e
:100df000854f520003003a00110478006802540045
:100e000005003700a5c6b300854f520008003a0020
:100e1000910478006882540084087800940290005d
:100e200024039000b40390001402780005003700fa
:100e30001182e9008408780014027800cfa2de0055
:100e4000612bb9000498be000690be00a06090001f
:100e500088c6b30088cf50000d00320028c6b3000a
:100e600088cf500004003a000402fb00cfa2de004d
:100e7000612bb9000800370048c7b30088cf500085
:100e8000030032006644440088cf500004003a005a
:100e9000cfa2de00612bb9000498be000690be0010
:100ea000100278009002900020039000b0039000a0
:100eb000f0009000e00f5200e08f5a00e00f5b005e
:100ec000e08f5b0003003d0001824100d5c2b3000a
:100ed0000a003700001290000418a300030032003b
:100ee00001824100b5c2b300040037000408a3002a
:100ef000590032000182410005c2b300054a780062
:100f00005300370020629000c5c6b300854f5200e1
:100f100009003a0011057800640255008408780041
:100f200014047800940490006055b8000802be00d4
:100f30000a03be001600370015c7b300854f5200e4
:100f400003003a00910478006882540005003700dd
:100f5000a5c6b300854f520008003a00110578007d
:100f600068025500840878009402900024039000e1
:100f7000b403900014027800050037001182e900e4
:100f800084087800140278008002eb006033b80017
:100f90000498be000690be00a060900088c6b30012
:100fa00088cf50000d00320028c6b30088cf500013
:100fb00004003a000482fb008002eb006033b800ba
:100fc0000800370048c7b30088cf50000300320044
:100fd0006644440088cf500004003a008002eb00d1
:100fe0006033b8000498be000690be0080109000e8
:100ff0000138a3001800320010027800900290001f
:1010000020039000b0039000e00f5200e08f5a00e0
:10101000e00f5b00e08f5b000f00320081c7b30080
:10102000814f51000300320081c5b300814f510050
:1010300009003a00f00090000182410005c3b300ae
:10104000054a78008100e80001824100024a7800e8
:101050008100e80071009800f0009000818141005b
:1010600063009800824078003e003700a061900045
:10107000c4c6b3001181e90084cf510022003200c0
:101080000a003c006442520084cf51002500320027
:1010900004c2e80084cf51001300320068425200bd
:1010a00084cf51001e003a000a00370044c7b30045
:1010b00084cf51001b0032006642420084cf5100b1
:1010c000180032006942520084cf510014003a00e7
:1010d00005003700820878009200780040589000a0
:1010e000804878002c003700820878009200780051
:1010f000600a9000cfa2de00612bb9008498be0088
:101100008690be00240037008208780092007800a4
:1011100060099000cf91de008288be001e0037007b
:101120001181e90082087800920078006008900040
:1011300080087800180037001181e90082087800e3
:1011400012027800cfa2de00612bb9000498be0025
:101150000690be00f000900081814100630098007d
:1011600081c7b300230007000b003700f000900098
:101170008181410005003700f0009000818141002d
:101180000204e00001003a0052c2b3008249780034
:101190008100e800710098000000eb004f05be00e0
:1011a0004f04be00000006008001780002003700f6
:1011b000b15978000201e9000200e000fcff3a00aa
:1011c00000000600020037000304e00006003200c1
:1011d0000001780002007800b041780081cf510012
:1011e000f9ff3a00010037000001eb00020078002f
:1011f00000000600fc874700889fbe008a9fbe0053
:101200008c9fbe008e1f78000006780080c5b3005a
:1012100080cf50000a0032007740400080cf50005d
:101220000a0032006940400080cf50000b003200bd
:10123000f01a210080bf9f00ae0020000a00370096
:10124000e219210082bf9f0006003700f31a210037
:1012500083bf9f008e00200003003700f41a210096
:1012600084bf9f000e0120001c0278009c029000a9
:101270002c039000bc0390000605be000404be00d1
:1012800040c6b30080cf50000300320065404000ec
:1012900080cf50000b003a00e00f5200e08f5a0060
:1012a000e00f5b00e08f5b0006003d006000b800cf
:1012b0006011b800040450008584580006055900e8
:1012c00087855900e80f57000400320040002000d5
:1012d000f00f57003c003a000100370030002000ba
:1012e000e00f5400e08f5c00e00f5d00e08f5d00d8
:1012f00004003a00dc0890008d0120000100e000ad
:10130000070032008e00e900888060008fba9700e5
:101310008180420091407800f1ef9f007d01200024
:10132000800078008100e900050033008b05d100c2
:101330000a85d3008984d3000884d300f9ff3700dd
:10134000089ebe000a96be00130037008d06e90015
:101350008e00e900848060000fb997008100410091
:101360001141780083fd2f008d81410082f77900c3
:10137000800178008301e900050033008783d100f4
:101380000683d3008582d3000482d300f9ff37009f
:10139000049ebe000696be001c0278009c029000cf
:1013a0002c039000bc039000e00f5200e08f5a0025
:1013b000e00f5b00e08f5b00930034000d00e00065
:1013c000e2ff3c00900037002c60900081c6b30023
:1013d000814f50000b00320006003c000004e0008a
:1013e00008003200e6c05000814f500052003a0021
:1013f00004003700c1c6b300814f50004e003a00d0
:10140000230037000800e00004003a005c08900068
:101410008d0120000000e0000700320011000900eb
:101420000e84d8000fba97000100420010407800e7
:10143000f0ef9f007d012000110009000e84d8000c
:101440000b003700110009000e04d8008d06e900da
:101450008e81b900020454008fb8970008844000c0
:101460009841780082fd2f000d01410083777900bb
:10147000000478000800e000020032000d00e000e7
:10148000f0ff3c00cfc4de00614db90027003700fb
:10149000e00f5400e08f5c0004003a005c0890000c
:1014a0008d0120000000e000080032006171b900e9
:1014b0000800be00590107000fba970080004200e3
:1014c00091407800f1ef9f007d0120006171b9002b
:1014d0000800be0034fd07000c0037006171b90040
:1014e0000800be003e0107008d06e90080f1b9004a
:1014f000020454008fba9700088442009841780093
:1015000082fd2f000d014100837779000004be00a9
:10151000e00f5000e08f5800020032000d00e000a4
:10152000eeff3c004fcdde008a057800089ebe002d
:101530000a96be0034003700e00f5400e08f5c00d4
:10154000e00f5d00e08f5d0004003a005c08900051
:101550008d0120000000e0000a0032006172b90035
:10156000612bb9000800be000a01be00d0010700cf
:101570000fba97008000420091407800f1ef9f0081
:101580007d0120006172b900612bb9000800be0026
:101590000a01be00bf0107000e0037006172b900ea
:1015a000612bb9000800be000a01be00c40107009b
:1015b0008d06e90080f2b900040454008fba970048
:1015c000088442009842780084fd2f000d024200fa
:1015d00085777a00009ebe000296be001c0478004b
:1015e0009c0490002c059000bc059000e00f540076
:1015f000e08f5c00e00f5d00e08f5d0002003400d2
:101600000d00e000e5ff3c00e80f570010003a0035
:101610000c1090000038a3000d003200f78f560028
:1016200006003e0080fd2f000d004000ef407800d6
:1016300000c3b30080cf50000500320002c3b300e6
:1016400071fd2f008d8040008d06e90082f7780043
:1016500078811600120e98006c00900083fd2f0018
:101660008f8141008d804100cffe07001c08900053
:10167000dc089000810f500006003d000080500003
:10168000000e98000c1090000040a1000016980079
:101690000f0037000100e0000d003d008c109000ad
:1016a000f4806000f08f500009003a007c0990003f
:1016b000fc009000810051000c09900082805000d5
:1016c000008050004240a90001003400000e980044
:1016d0004f0778004f06be004f05be004f04be0006
:1016e000cf01b100000006000400fa00889fbe0090
:1016f0008a9fbe008c1f78000004780001067800e5
:10170000f80d900078009000808555000808900042
:1017100080855500180890008085550028089000a5
:101720008085550038089000808555004808900055
:10173000808555000002220090bf9f000003230017
:10174000a0bf9f00081090000028a30015003a00d9
:101750000b00e000130034000b0578008a047800c9
:10176000e20f55000100360029002000c80190005a
:1017700009017800ee805700580090000300010036
:10178000500498000000e0008c00320068089000cf
:1017900009004000600c9800090555004240a9006e
:1017a000eeff3c00780190000200e0000c003400e5
:1017b000c80190008c0078005800900003000100e0
:1017c000500498008080eb000000e0007c003200b4
:1017d000e80890007800900000804000600c9800bd
:1017e000880c90000900e000110034000905780021
:1017f000e28f5400010036002a002000c80190004a
:101800000a017800ec8057005800900003000100a6
:10181000500498000000e000680032006808900062
:101820000a004000600c98008a845400edff3700e5
:10183000180990000200e0000c003400c80190007c
:10184000e800900058009000030001005004980048
:101850008080eb000000e00059003200e8089000b2
:101860001808900000804000600c9800a80c9000c0
:101870000900e0001100340009057800e28f5400ef
:10188000010036002a002000c80190000a017800fb
:10189000ec805700580090000300010050049800ad
:1018a0000000e00045003200680890000a00400097
:1018b000600c98008a845400edff370038099000ce
:1018c0000200e0000e003400e800900018089000cc
:1018d00080804000c8019000580090000300010083
:1018e000500498008080eb000000e00034003200db
:1018f000e80890003808900000804000600c9800d4
:10190000c80c90000900e0001100340009057800bf
:10191000e28f5400010036002a002000c801900028
:101920000a017800ec805700580090000300010085
:10193000500498000000e000200032006808900089
:101940000a004000600c98008a845400edff3700c4
:10195000081090008000eb000028a300180032005f
:101960000b00e000160034008b04780009057800b5
:10197000e28f5400010036002a002000c8019000c8
:101980000a017800ee805700580090000300010023
:10199000500498000000e000080032006808900041
:1019a0000a004000600c98008a8454004240a9005c
:1019b000eeff3c008000eb00010037008080eb0070
:1019c000010078004f0678004f05be004f04be00ae
:1019d0000080fa0000000600010878000000060000
:1019e000839f68000100e00002003d0060001000dd
:1019f000e08018000300e00002003d0060011100db
:101a0000e0811900e8fb07004f00e00002003b0006
:101a100060001000e080180000000600e2fb0700f4
:101a20000400be0000000600889fbe008a9fbe0022
:101a300030044200b0844a0030054b0090854b00d2
:101a40006000b1000898be000a90be000440e100aa
:101a500005c8e10006d0e10007d8e100020031002e
:101a6000680040001008e8004f05be004f04be00ab
:101a700000000600889fbe008a9fbe001004780008
:101a80009004900020059000b005900004185400c8
:101a900005985c0006185d0007985d0011002000a5
:101aa0000440e10005c8e10006d0e10007d8e100ec
:101ab000010039008000eb00108810004f05be00c7
:101ac0004f04be00000006001200fa00889fbe000e
:101ad0008a9fbe008c9fbe00e0b79f00f1b79f00b9
:101ae00082bf9f0093bf9f000605be000404be0096
:101af0000000eb00d0b79f00c0b79f00b0b79f00b9
:101b0000a0b79f0090b79f000006eb005fb1970061
:101b1000cfb09700820141003fb097000200e00083
:101b200004003d00370007007e805700beff07001d
:101b300003003700330007007e805700cdff070009
:101b4000dfb697000d00e0000c0035006fb2970083
:101b5000ffb297000fbb97009fbb970010002000bb
:101b6000010020006011b800000272008182720042
:101b700002037300838373001b0007000c06e80058
:101b800001042000810f5600e0ff3a000d00e00044
:101b900004003d000802be000a03be007e8057001c
:101ba000a1ff07005fa897000000e00005003a00d1
:101bb0001fb29700afb297003fb39700cfb3970023
:101bc000090007006fb09700ffb097000fb99700aa
:101bd0009fb997004f06be004f05be004f04be00e0
:101be0000080fa0000000600010007000000060067
:101bf000a4b79f00b5b79f00c6b79f00d7b79f0097
:101c0000000006004f09de0082817100b3b79f001b
:101c10004f01de008180400082807000a1b79f00ec
:101c20008fb097004f09de000000400002007000f6
:101c300090b79f007fa897004f01de008180400091
:101c40008280700081b79f000d0007004f3ade00d0
:101c50000000400004007000f0af9f000800070083
:101c60000402420085824a0006034b0087834b0032
:101c7000dfff07000802be000a03be0000000600e6
:101c80002fb29700bfb297004fb39700dfb3970012
:101c900000000600881f780018002000881f7800c8
:101ca00089ff07008f87e9004f04780000000600d5
:101cb000801feb0084ff07008f87e900000006000b
:101cc000889fbe008a9fbe00e00f5000e08f580042
:101cd000e00f5900e08f59000c003d006044b8004f
:101ce0006055b8000000540081805c0002015d0076
:101cf00083815d00180020001500070008003d00ea
:101d0000180007000004eb00050037000004eb009a
:101d10000f00070002003d0012000700180020001d
:101d2000dcff07000800e000060032006022b80077
:101d30006033b8000000520081805a0002015b004d
:101d400083815b004f05be004f04be00000006000b
:101d5000e00f5200e08f5a00e00f5b00e08f5b0065
:101d6000000006006044b8006055b800040254004a
:101d700085825c0006035d0087835d00000006002d
:101d8000889fbe008a9fbe008c1f7800e00f500025
:101d9000e08f5800e00f5900e08f59000d003d0022
:101da0006044b8006055b8000000540081805c00b9
:101db00002015d0083815d001c0020000820e1001d
:101dc00009a8e1000ab0e1000bb8e1000d003d00f8
:101dd000080037000006eb00e00f5200e08f5a00c9
:101de000e00f5b00e08f5b0006003d006044b80040
:101df0006055b8000402540085825c0006035d0053
:101e000087835d00aaff07000c00e0000600320097
:101e10006022b8006033b8000000520081805a0090
:101e200002015b0083815b004f0678004f05be0016
:081e30004f04be000000060093
:020000040000fa
:101e3800534500004e5300004f520000203d000063
:081e48002534000075000000c4
:020000040000fa
:101e50000200fa00000f78001e007800e10f500029
:101e600009003200e10f500005003900e20f500078
:101e700007003200e30f500007003200080037006f
:101e800001eba8000600370011eba80004003700a2
:101e900021eba8000200370031eba8000000000091
:101ea0000080fa00000006000400fa00000f78002d
:101eb000110798001e007800e10f50000b0032005f
:101ec000e10f500005003900e20f50000b00320016
:101ed000e30f50000d003200100037009e0090000c
:101ee00021588800062bef000c0037009e00900060
:101ef000a1588800162bef00080037009e009000c4
:101f000021598800262bef00040037009e00900026
:101f1000a1598800362bef00000000000080fa0075
:101f2000000006000400fa00000f78001107980076
:101f30001e007800e10f50000a003200e10f50004f
:101f400005003900e20f500009003200e30f500095
:101f50000a0032000c0037009e0090006158880093
:101f6000090037009e009000e15888000600370005
:101f70009e00900061598800030037009e00900089
:101f8000e1598800000000000080fa00000006000f
:101f90000000fa0001eca8000080fa000000060032
:101fa0000000fa000060fe000080fa000000060059
:101fb0000200fa00000f78009e007800118c880063
:101fc0000080fa00000006000000fa00108c80007b
:101fd0003063880019eea800262cef00462cef0095
:101fe00019aea900196ea9000080fa0000000600d1
:101ff0000000fa00108c80003062880019eea80002
:10200000262cef00662cef0019aea900196ea9006e
:102010000080fa00000006000000fa00108c80002a
:1020200030628800196ea800262cef00662cef00a5
:1020300019eea90019aea9000080fa000000060000
:102040000000fa00108c800030618800196ea80032
:10205000462cef00662cef0019eea90019aea9007e
:102060000080fa00000006000000fa00108c8000da
:102070003061880019aea800462cef00662cef00f6
:1020800019eea900196ea9000080fa0000000600f0
:102090000000fa00108c80003063880019aea800a0
:1020a000262cef00462cef0019eea900196ea900ae
:1020b0000080fa00000006000000fa0010708000a6
:1020c0004200de00e7006000301021000080400088
:1020d000104078000080fa00000006000000fa00be
:1020e00098060700618c8000508c80000100700011
:1020f0000000e00002003a000080eb00608c8800e5
:1021000081d1bf00e14f500016003a00608c800082
:10211000e10f500009003600107080004200de0020
:102120006700600080004000c01021000080400077
:1021300010007800000001000800370010708000d7
:102140004200de006700600080004000c0112100f6
:102150000080400010007800000001000621ef0020
:102160002200370081d1bf000004e00016003200d9
:10217000608c8000e10f5000090036001070800074
:102180004200de006700600080004000c0122100b5
:1021900000804000100078000000010008003700b7
:1021a000107080004200de00670060008000400088
:1021b000c0132100008040001000780000000100e2
:1021c0000621ef0009003700107080004200de0099
:1021d0006700600080004000c014210000804000c3
:1021e00010007800000001000621ef000080fa00d6
:1021f000000006000000fa00a0088000508c880053
:10220000b0088000608c88001621ef001421ef00d8
:1022100063ff07000621ef00408c8000e10f5000b3
:1022200007003600408c80000000d1001e06070029
:102230000000eb00270607003c06070001003700fe
:10224000a6ff07000080fa00000006000000fa0068
:1022500081d1bf00e14f500009003a0010708000aa
:102260004200de006700600080004000c0102100d6
:1022700000804000100078000000010014003700ca
:1022800081d1bf000004e00009003200107080001e
:102290004200de006700600080004000c0122100a4
:1022a00000804000100078000000010008003700a6
:1022b000107080004200de00670060008000400077
:1022c000c0142100008040001000780000000100d0
:1022d0000080fa00000006000000fa00011821004a
:1022e0009140780000c8b30080cf50000500320054
:1022f0008831ef00803e20002dff0700d3ff07004c
:10230000090037008231ef008171ef008831ef0062
:10231000262cef00462cef00662cef0019eea900ea
:1023200019aea900196ea9000621ef000080fa007d
:10233000000006000200fa000040eb001047980081
:102340000040eb00004f78000c003700f18b80005c
:10235000b01f2000808f500007003600f18b8000f6
:1023600040202000808f500003003e001e4090005f
:102370000040e800104798001e4fe8001e4078001b
:10238000e74f5000f1ff36001e409000e64f50002e
:1023900002003e000000eb000100370010002000aa
:1023a0000080fa00000006001600fa000040eb0072
:1023b000004f780010003700f9fe070000c8b30096
:1023c0003b040700f18b80000e00e800811f7800bd
:1023d000c1f12800811f780090f90700e4875700b9
:1023e0000e00e8000804070040ba2700a1062000fc
:1023f000010707001e4fe8001e407800e34f500021
:10240000edff36000080fa00000006002800fa0008
:10241000d6060700262cef00462cef00662cef00b6
:1024200019eea90019aea900196ea900d8fe07007f
:102430000000eb0086fe07001000200084fe07006d
:1024400080262000800078000000eb00b5fe070029
:10245000003020008000780010002000b1fe07004e
:10246000c0172100800078000000eb008efe0700fe
:10247000e017210080007800100020008afe07008d
:10248000a00f210002060700c01621004f0507001b
:10249000e00621009d050700c1fe070040ba2700a5
:1024a000a1062000d406070080c0b3000f04070077
:1024b0008831ef00408c8000108c8800108c8000e8
:1024c0000040780081f1b70000c8b30002f1b70006
:1024d00002d1bf0080f1b70044050700990507004d
:1024e0008f040700aefe070020032000300798008d
:1024f00001003700acff07008eff07000000e0007e
:10250000fcff3200108c8000a9fe07003e00900006
:102510000000e000060032003e0090000000e900ec
:102520003007980000c8b30080f1b7000200370000
:102530007cd1bf0080f1b7000118210091407800e4
:1025400002d1bf0080cf50001400360080d1bf0000
:102550008080fb0002d1bf000080fb0065004000ce
:10256000808f50001c00360002d1bf000080fb00ad
:10257000e5004000f00f2000808f5000030036007f
:1025800000c0eb0080f1b7001300370002d1bf009c
:102590006540400080f1b7000f00370080d1bf00d8
:1025a0000080fb00e500400002d1bf000080fb007e
:1025b000808f50000800310002d1bf00e54f50006d
:1025c0000400360002d1bf006540500080f1b70022
:1025d000010037008071ef00011821009140780060
:1025e00000c8b30080cf50000600360002d1bf0003
:1025f0000004e0000d00350000c8b30080f1b70012
:102600000a00370080d1bf000004e0000700350059
:10261000211021009140780000c8b30080cf500005
:102620000200360000c8b30080f1b7000118210095
:102630009140780000c8b30080cf50000b003600f6
:1026400010c0b30081f1b70080d1bf000080fb0053
:102650000008b10080004000000021000080400020
:1026600090007800210798000e00370080d1bf004d
:102670000004e0000b00350000c0eb0081f1b70062
:1026800080d1bf000080fb000108200000805000c6
:10269000800040000000210000804000100278000f
:1026a00024079800011821009140780000c8b30069
:1026b00080cf50000c003a0039fe07008231ef0055
:1026c0008171ef008831ef00262cef00462cef00df
:1026d000662cef0019eea90019aea900196ea90029
:1026e0000621ef003b0037002110210091407800c7
:1026f00000c8b30080cf500006003a008831ef00d8
:10270000803e20002afe0700d0fe07000621ef00d1
:1027100030003700ae009000703e2000808f5000e7
:1027200029003e000064200001002000008fbe0050
:10273000813e20002e009000008050008000eb00c1
:102740001e0190008091b9009e017800819ab90025
:1027500084017800030141009e0178000018b80050
:102760000101410082007800008fbe00008fbe0092
:102770002e0090008000eb000001be001e007800db
:102780009e00900088f80700008fbe00f0ff2f0029
:10279000010020001e0178009e019000800f510072
:1027a000818f590003003600f0ff2f000100200048
:1027b000008fbe001e007800408c8800803e200004
:1027c000fbfd0700030037002e009000f8fd070016
:1027d0008831ef0080d1bf0002f1b70049ff370018
:020000040000fa
:1027e000961100000200000082000000ffff0000c0
:1027f0005c11000020000000800000009811000023
:1028000002000000800000008e11000004000000a3
:10281000800000009a11000002000000800000000b
:102820009211000004000000800000009c110000d4
:102830000200000080000000001000005c010000a9
:102840008200000000001800001a00001c001e009a
:102850000021000023002600002900002c00300089
:102860000033000037003c000040000046004b00f1
:102870000051000057005e00006600006e00760008
:10288000008000008a00950000a10000ad00bb00a0
:1028900000ca0000da00eb0000fd00001101270073
:1028a000013e01005801730001900100b001d20007
:1028b00001f601001e02490002770200a902df00b2
:1028c0000219030057039b0003e403002e04740065
:1028d00004ba040001054700058d0500d305190061
:1028e000065f0600a506eb00063207007807be006b
:1028f000070408004a08900008d608001c09630075
:1029000009a90900ef0935000a7b0a00c10a07007e
:102910000b4e0b00940bda000b200c00660cac0085
:102920000cf20c00380d7f000dc50d000b0e510090
:102930000e970e00dd0e23000f690f00b00ff6009a
:102940000f3c10008210c800100e110054119a00a4
:1029500011e1110027126d0012b31200f9123f00ad
:1029600013851300cc131200145814009e14e400b5
:10297000142a15007015b60015fd150043168900c0
:1029800016cf160015175b0017a11700e7172e00ca
:1029900018741800ba18000019001900800004000b
:1029a000020300000501000000e40f0048102000b1
:1029b00010341000f80fe4000f0c1000e40fe400d6
:1029c0000fe40f0034104800100c1000f80f200026
:1029d00010e40f00e40f200010f80f000c10480066
:1029e00010341000e40fe4000fe40f000c10e400ba
:1029f0000ff80f003410200010481000e40fe4001e
:102a00000f3410000c10200010e40f004810f800e4
:102a10000fe40f007c110000120000008000000095
:102a2000c01100001a00000082000000686a6c00fb
:102a3000747a4c000000010000020000040008004d
:102a400000100000000020002b2d230030000000ab
:102a50009e11000022000000820000003031320090
:102a6000333435003637380039414200434445009d
:102a70004600300031323300343536003738390003
:102a800061626300646566000000000000000000f1
:020000040000fa
:102a90000000fa00008820001013880010002000b9
:102aa00020138800c0002800001388000080fa006e
:102ab000000006000400fa00000f780011079800db
:102ac0000000000000138000620060000000e000d1
:102ad000fcff3a001e007800104078000080fb00e8
:102ae0004013880000000000011380000002200055
:102af000008060000000e000fbff3a00401380000f
:102b0000804078001e009000014878000080fa00a4
:102b1000000006001800fa00100f9800210f98001e
:102b2000320f98000000eb00000f78000000eb006f
:102b3000100798000000eb00700798000000eb0001
:102b4000000f980010002000600798001e089000f9
:102b50000000e00005003a000000eb00500798007c
:102b6000700047002007980004003700ee00900036
:102b7000510798009e089000210798003e08900099
:102b80000000e00005003a000000eb00400798005c
:102b90006e0047003007980005003700ee009000f7
:102ba00041079800be08900031079800000000001f
:102bb00000138000620060000000e000fcff3a00ab
:102bc0001d00370000138000620060000000e0007c
:102bd00009003a002e009000104078000080fb00b1
:102be00040138800ae0090005e009000008040001e
:102bf000200798001e0fe80001138000000220004b
:102c0000008060000000e0000b003a0040138000ec
:102c1000804078003e00900001487800be0090009f
:102c20004e00900000804000300798001e00900089
:102c30000000e800100798002e0890009e00780021
:102c4000808f5000dfff3900100037000113800033
:102c500000022000008060000000e0000b003a004d
:102c600040138000804078003e00900001487800ca
:102c7000be0090004e009000008040003007980099
:102c80001e0090000000e800100798009e009000d1
:102c90002e089000808f5000ecff39001e00780055
:102ca0000080fa00000006000400fa0020479800a7
:102cb0000e80e8008e0078007eff07001e4078003e
:102cc0000080fa00000006000600fa00000f7800fd
:102cd00011079800220798002e0190009e00900096
:102ce0001e0078008bff07000080fa00000006003d
:102cf0000000fa00111380000040200000806000f6
:102d00000000e00002003a000000eb000100370084
:102d1000100020000080fa00000006000000fa0009
:102d2000001380000080fa00000006000000fa0096
:102d3000022cef000090210020608800062cef009c
:102d40000a2cef001a2cef001e2cef0000082000c8
:102d50000061880000082000006288000008200050
:102d60000063880000402800e3c1200011322400e5
:102d7000d2bc2a008209780081097800106188009d
:102d800000402800e3c1200011322400d2bc2a00f8
:102d900082097800810978001062880000402800cc
:102da000e3c1200011322400d2bc2a00820978003d
:102db000810978001063880010442200e3c12000dc
:102dc00011322400d2bc2a008209780081097800df
:102dd0002061880010442200e3c120001132240049
:102de000d2bc2a008209780081097800206288001c
:102df00010442200e3c1200011322400d2bc2a007a
:102e0000820978008109780020638800262cef0071
:102e1000462cef00662cef00282cef00482cef002a
:102e2000682cef004006200050618800400620001a
:102e30005062880040062000506388002c2cef0070
:102e40004c2cef006c2cef00322cef00522cef00da
:102e5000722cef00342cef00542cef00742cef0098
:102e6000382cef00582cef00782cef003a2cef00b4
:102e70005a2cef007a2cef003c2cef005c2cef007a
:102e80007c2cef003e2cef005e2cef007e2cef0040
:102e900000402800006088000080fa000000060062
:102ea0000000fa000080fa00000006000000fa00ae
:102eb0003140800000202000008060000000e00021
:102ec00002003200f6ff07000728a9000080fa0080
:102ed000000006000000fa000080fa000000060072
:102ee0000000fa00314080000020200000806000d7
:102ef0000000e00002003200f6ff07000bc8a90046
:102f00000080fa00000006000000fa000080fa00cd
:102f1000000006000000fa00314080000020200080
:102f2000008060000000e00002003200f6ff0700b1
:102f30000be8a9000080fa00000006000000fa007b
:102f40000080fa00000006000000fa003140800016
:102f500000202000008060000000e000020032003d
:102f6000f6ff07000c08a9000080fa000000060028
:102f70000000fa0014aea90018aea80014cea900f3
:102f800018cea800b0082000010020001a04070095
:102f900018aea900b00820000100200016040700a8
:102fa00018cea9000080fa00000006000000fa0018
:102fb00014aea90018aea90014cea90018cea8001e
:102fc000b0082000010020000b04070014aea80088
:102fd00014cea8000080fa00000006000400fa00e9
:102fe0002047980014aea90014cea900ae4090006e
:102ff000014f780080c0b3001047980014003700dc
:103000001e4078000004e00002003d0018aea80059
:103010000100370018aea9001e40780000404000b3
:10302000004f780018cea800701120000100200089
:10303000f103070018cea900100d200001002000a8
:10304000ed0307001e4090000040e9001047980083
:103050001e4090000004e000e9ff3a0014aea80012
:103060000080fa00000006000200fa0014aea8007a
:1030700014cea90080c0b300104798001400370098
:103080005004200001002000db03070018cea80038
:103090001e40780000404000004f7800b170800072
:1030a00000022000008060000000e000020032000a
:1030b0001e04a00002003700e0cfb3001e4f6000e6
:1030c00018cea9001e4090000040e900104798006b
:1030d0001e4090000004e000e9ff3a001e40780026
:1030e0000080fa00000006000200fa0014aea800fa
:1030f00014cea90018cea800500420000100200022
:10310000bd030700b07080004500de006140600034
:10311000004f780018cea9001e4078000080fa0009
:10312000000006000000fa0014aea90018aea900c5
:1031300014cea9005004200001002000ae030700b7
:1031400018cea800b008200001002000aa03070044
:1031500018cea90014aea8000080fa0000000600f6
:103160000000fa0014aea90018aea80014cea90001
:1031700018cea80050042000010020009e03070084
:1031800018cea90050042000010020009a03070077
:1031900014aea8000080fa00000006000000fa004b
:1031a000003a80000080fa00000006000200fa00e9
:1031b000faff0700000f78001e00780024000700c7
:1031c0000004e00002003200000028007100070047
:1031d0001e0078002a0007000004e0000200320010
:1031e000000024006b0007001e007800320007007a
:1031f0000004e0000200320000202000650007000b
:103200001e0078003a0007000004e00002003200cf
:10321000000820005f0007001e0078004200070041
:103220000004e00002003200000420005900070002
:103230001e0078004a0007000004e000020032008f
:1032400000012000530007000080fa000000060083
:103250000400fa00100798000040eb00004f7800cf
:103260001e0090000000e00002003d0010c0b3000e
:10327000004f78001e4078000080fa000000060031
:103280000400fa00100798000040eb00004f78009f
:103290009e00900000002400008060000000e0001c
:1032a0000200320010c0b300004f78001e407800ca
:1032b0000080fa00000006000400fa0010079800e1
:1032c0000040eb00004f78009e009000002020009e
:1032d000008060000000e0000200320010c0b30077
:1032e000004f78001e4078000080fa0000000600c1
:1032f0000400fa00100798000040eb00004f78002f
:103300009e00900000082000008060000000e000a7
:103310000200320010c0b300004f78001e40780059
:103320000080fa00000006000400fa001007980070
:103330000040eb00004f78009e0090000004200049
:10334000008060000000e0000200320010c0b30006
:10335000004f78001e4078000080fa000000060050
:103360000400fa00100798000040eb00004f7800be
:103370001e009000700060000000e00002003200bb
:1033800010c0b300004f78001e4078000080fa00a3
:10339000000006000200fa00000f78009e80ea009c
:1033a000003a800000806000003a88000080fa0047
:1033b000000006000000fa004027ef000080fa003d
:1033c000000006000200fa00004f780010c0b300b1
:1033d00037000700800921001100200006030700c4
:1033e00000c8b3009e40780080cf50000300320038
:1033f0001e4078002e00070001003700000000008a
:103400000080fa00000006000600fa00200798007d
:10341000d7fe0700c0c7b300f0fe070032ff070069
:103420002e00900070f507002047980010c0b300f0
:10343000104798001700370000ccb300004f780009
:103440009e4090002e40900080cf500002003a0035
:1034500000c4b300004f78001e407800dffe070074
:1034600021ff07002e00900010407800004f7800e8
:103470002e0090000000e800200798001e40780011
:10348000d6fe070018ff07001e4090000040e8002d
:10349000104798009e4090002e40900080cf500032
:1034a000e5ff3400c1fe07000080fa0000000600be
:1034b0000200fa00004f7800adfe0700c0c7b3005d
:1034c000c6fe070008ff07000040eb00c3fe070030
:1034d00005ff07001e407800c0fe070002ff07003e
:1034e000b2fe07000080fa00000006000200fa00a9
:1034f000004f7800b07d2900a1022000be02070025
:1035000080c3b300eaff0700d08220000100200042
:10351000b902070090c3b300e5ff0700d082200086
:1035200001002000b402070040c1b300e0ff070023
:10353000d082200001002000af0207009e407800ea
:103540006fc060000047b000d9ff0700d0822000a4
:1035500001002000a80207001e80fb004400de00de
:10356000004078004045b000d1ff0700d082200025
:1035700001002000a0020700c0c6b300ccff070076
:1035800090742f00410d20009b02070080c3b30000
:10359000c7ff0700d082200001002000960207002c
:1035a000c0c0b300c2ff0700d0822000010020008d
:1035b0009102070010c0b300bdff070010132200e6
:1035c000210020008c0207000080fa0000000600a5
:1035d0000000fa001821ef00a0db2f00e0088800af
:1035e0001421ef0020e72900d0088800800028007f
:1035f000f00888009a71ef000080fa0000000600d1
:103600000000fa00114080000000210000806000ee
:103610000000e000060032009bd1bf000040e8003f
:103620009bf1b70010c0b3009af1b7000388a9005e
:103630000080fa00000006000400fa00008fbe00bf
:103640001e007800d00888001e0078009e009000c0
:103650004008de0000007800e00888000080fa00e2
:10366000000006000400fa000080eb008080eb0000
:10367000008fbe00e00880008000eb00c001dd008c
:1036800002002000d00880008000eb00001f7100c5
:10369000019771001e0078009e0090000080fa00e3
:1036a000000006000400fa00008fbe001e00780033
:1036b0009e0090004008de0000007800b0088800fe
:1036c0001e007800a00888000080fa0000000600b4
:1036d0000800fa000080eb008080eb00008fbe0045
:1036e000a108800021079800b108800031079800e8
:1036f0003e0090008000eb00c001dd0002002000d1
:103700002e0090008000eb00001f710001977100f7
:103710001e0078009e0090000080fa000000060065
:103720000000fa009a71ef001fe1a8000080fa0083
:10373000000006000000fa001fe1a9000080fa0066
:10374000000006000200fa00a11921009140780053
:10375000014f78001e4078000004e00001003200b4
:103760009a71ef001e4078000080fa000000060009
:103770000000fa009bd1bf000080fb000080fa002f
:10378000000006000000fa009b71ef000080fa00c4
:10379000000006000000fa000081240000588800a4
:1037a0001002200010588800062bef0000002100b6
:1037b000205888000a2bef00082bef000c2bef009d
:1037c0000e2bef000088a90000812000805888009f
:1037d000d000200090588800162bef000000210038
:1037e000a05888001a2bef00182bef001c2bef00bd
:1037f0001e2bef0001c8a900202bef0010022000b3
:1038000010598800262bef00000021002059880065
:103810002a2bef00282bef002c2bef002e2bef0094
:103820000308a900302bef001002200090598800f7
:10383000362bef0000002100a05988003a2bef0042
:10384000382bef003c2bef003e2bef000488a90043
:1038500001eba80011eba8000080fa0000000600b0
:103860000000fa000080fa00000006000000fa00e4
:1038700000408000700060000000e00002003200a4
:10388000f7ff07000088a9000080fa00000006008a
:103890000000fa000080fa00000006000000fa00b4
:1038a0000140800000002400008060000000e00073
:1038b00002003200f6ff070001c8a9000080fa00ec
:1038c000000006000000fa000080fa000000060078
:1038d0000000fa001140800000102000008060000d
:1038e0000000e00002003200f6ff07000308a90014
:1038f0000080fa00000006000000fa000080fa00d4
:10390000000006000000fa00204080007000600007
:103910000000e00002003200f7ff07000488a90061
:103920000080fa00000006000000fa000621ef0007
:103930000080eb00600888000003280080088800f1
:10394000708c80000000e00002003a0000ce2100f0
:103950001e00070000e8a90020e8a8009071ef0011
:103960000080fa00000006000200fa00000f780054
:103970009e007800610888009071ef000080fa00d6
:10398000000006000000fa00600880000080fa00d5
:10399000000006000200fa00000f78009e00780088
:1039a000310888009071ef000080fa0000000600e6
:1039b0000000fa00300880000080fa0000000600d5
:1039c0000000fa000080fa00000006000200fa0081
:1039d000000f780020e8a9009e007800718c880014
:1039e00020e8a8000080fa00000006000000fa00ad
:1039f0009071ef0020e8a80011e1a8000080fa0013
:103a0000000006000000fa0011e1a90020e8a9006a
:103a10000080fa00000006000200fa0001192100ef
:103a200091407800014f78001e4078000004e000cb
:103a3000010032009071ef001e4078000080fa0013
:103a4000000006000000fa0091d1bf000080fb00da
:103a50000080fa00000006000000fa009171ef00fb
:103a60000080fa00000006000000fa000a21ef00c2
:103a70000080eb0070088800000328009008880090
:103a8000908c80000000e00002003a0000d8210085
:103a90001e0007000108a9002108a8009471ef008a
:103aa0000080fa00000006000200fa00000f780013
:103ab0009e007800710888009471ef000080fa0081
:103ac000000006000000fa00700880000080fa0084
:103ad000000006000200fa00000f78009e00780047
:103ae000510888009471ef000080fa000000060081
:103af0000000fa00500880000080fa000000060074
:103b00000000fa000080fa00000006000200fa003f
:103b1000000f78002108a9009e007800918c880091
:103b20002108a8000080fa00000006000000fa004a
:103b30009471ef002108a80013e1a8000080fa00aa
:103b4000000006000000fa0013e1a9002108a90006
:103b50000080fa00000006000200fa00411921006e
:103b600091407800014f78001e4078000004e0008a
:103b7000010032009471ef001e4078000080fa00ce
:103b8000000006000000fa0095d1bf000080fb0095
:103b90000080fa00000006000000fa009571ef00b6
:103ba0000080fa00000006000000fa00042eef007a
:103bb000182eef00f001200000708800f03820007f
:103bc000a07088000c2eef00202eef000a2eef00d0
:103bd0001e2eef00062eef001a2eef001000200020
:103be00070708800c000200010718800113a8000b9
:103bf000f00b2000008160006004200071052000af
:103c00002374200080497800814978008249780037
:103c100080c2b300cde6b70070c2b300cce6b700f7
:103c200090c2b300cee6b7009133800000fc2f00b5
:103c3000008060008001b30090338800103a80005b
:103c4000000178000260a0006004200071052000df
:103c500023742000804978008149780082497800e7
:103c6000084ea800086ea800088ea80020e42100d5
:103c7000070007000268a9002268a8000080fa0077
:103c8000000006000000fa000080fa0000000600b4
:103c90000200fa00000f78002268a9009e00780058
:103ca000c18c88002268a8000080fa00000006008d
:103cb0000200fa00000f78001e007800f4ff0700f1
:103cc0000080fa00000006000000fa00802aef00e1
:103cd0000000240020548800862aef00882aef0084
:103ce0008a2aef0085eaa8000080fa00000006009a
:103cf0000000fa00205480004800de0061406000af
:103d00000080fb0000f0a7000000ea000000ea00cd
:103d10004f00de00004078000080fa00000006003e
:103d20000000fa00205480004900de00614060007d
:103d30000080fb0000f0a7000000ea000000ea009d
:103d40004f00de00004078000080fa00000006000e
:103d50000000fa00852aa9000080fa000000060091
:103d60000000fa00405480004f00de000040780060
:103d70000080fb0000f0a7000000ea000000ea005d
:103d80004f00de00004078000080fa0000000600ce
:103d90000000fa0085eaa9000080fa000000060091
:103da0000000fa0085eaa8000080fa000000060082
:103db0000000fa000080fa00000006000000fa008f
:103dc00010408000640060000000e000030032004a
:103dd000f7ff0700deff07000248a9000080fa0095
:103de000000006000000fa00400e280000198800bc
:103df0000040200010198800f0812100201988005f
:103e00002823ef0000902000701988001000200087
:103e10008019880000102000901988002623ef00e8
:103e200080f12100050007000080fa000000060074
:103e30000000fa000080fa00000006000200fa000c
:103e4000000f78001e007800e08c88000080fa00e7
:103e5000000006000000fa0001408000000022007f
:103e6000008060000000e00006003200e08c80006e
:103e70000000e00002003200e08c80000000010041
:103e800001a8a9000080fa00000006000000fa0066
:103e900000202300203a88004827ef004e27ef003b
:103ea000d0122000303a88006027ef006227ef0030
:103eb0006427ef006627ef006a27ef006c27ef000a
:103ec0006e27ef001200200080072000a1092000cb
:103ed0003374200080497800814978008249780055
:103ee00012002000600420007105200023742000cf
:103ef00080497800814978008249780000000000fc
:103f0000103a8000610060000000e000fcff3a0011
:103f100000000000113a80000002200000806000d4
:103f20000000e000fbff32000080fa000000060005
:103f30000200fa00000f780021028000200f20000c
:103f4000008060001e007000200288000080fa00df
:103f5000000006000000fa00c3e8a800000000000e
:103f6000000000000080fa00000006000000fa00d7
:103f70000dff0700c5ff07000d0007006bfb0700e2
:103f800093fd070068fe0700c1fa07004eff070017
:103f900094ff0700b4fe0700fefd0700edff0700d9
:103fa00000022000e2ff07000080fa000000060087
:103fb0000000fa0041428000f0ff2800008060000d
:103fc00000c0a000404288002142800080ff2f00f6
:103fd000008060000000a0002042880011428000a4
:103fe000f0ff28000080600000c0a00010428800a0
:083ff0000080fa000000060049
:020000040000fa
:103ff800f03fb1000180b10006003500ee03090072
:1040080000000000403fb1000180b100fbff3d000f
:104018001000b000203fb000020035000080090009
:0840280000000000000006008a
:020000040000fa
:104030000200fa00000f78009e007800b18c880022
:10404000ffff37000000fa00c0152100800778004c
:1040500040172100000188000080fa0000000600df
:020000040000fa
:04af0000ffff00004f
:020000040000fa
:04af2000ffff00002f
:020000040000fa
:04af300078ff0000a6
:020000040000fa
:04af38007bff00009b
:020000040000fa
:04af400098ff000076
:020000040000fa
:04af4800ffff000007
:020000040000fa
:04af5000fdff000001
:020000040000fa
:04af580000000000f5
:020000040000fa
:04af600000000000ed
:020000040000fa
:04af680000000000e5
:020000040000fa
:04af700000000000dd
:020000040000fa
:04af7800feff0000d8
:020000040000fa
:04af8000ffff0000cf
:020000040000fa
:04af8800ffff0000c7
:00000001FF
